{
  "contractName": "Healthrecord",
  "abi": [
    {
      "anonymous": false,
      "inputs": [
        {
          "indexed": true,
          "internalType": "address",
          "name": "patientAddress",
          "type": "address"
        },
        {
          "indexed": false,
          "internalType": "string",
          "name": "disease",
          "type": "string"
        }
      ],
      "name": "PatientDiseaseAdded",
      "type": "event"
    },
    {
      "anonymous": false,
      "inputs": [
        {
          "indexed": true,
          "internalType": "address",
          "name": "patientAddress",
          "type": "address"
        },
        {
          "indexed": false,
          "internalType": "uint256",
          "name": "age",
          "type": "uint256"
        }
      ],
      "name": "updateAge",
      "type": "event"
    },
    {
      "inputs": [
        {
          "internalType": "uint256",
          "name": "_id",
          "type": "uint256"
        },
        {
          "internalType": "string",
          "name": "_name",
          "type": "string"
        },
        {
          "internalType": "string",
          "name": "_qualification",
          "type": "string"
        },
        {
          "internalType": "string",
          "name": "_workPlace",
          "type": "string"
        }
      ],
      "name": "registerDoctor",
      "outputs": [],
      "stateMutability": "nonpayable",
      "type": "function"
    },
    {
      "inputs": [
        {
          "internalType": "string",
          "name": "_name",
          "type": "string"
        },
        {
          "internalType": "uint256",
          "name": "_age",
          "type": "uint256"
        }
      ],
      "name": "registerPatient",
      "outputs": [],
      "stateMutability": "nonpayable",
      "type": "function"
    },
    {
      "inputs": [
        {
          "internalType": "string",
          "name": "_disease",
          "type": "string"
        }
      ],
      "name": "addNewDisease",
      "outputs": [],
      "stateMutability": "nonpayable",
      "type": "function"
    },
    {
      "inputs": [
        {
          "internalType": "uint256",
          "name": "_id",
          "type": "uint256"
        },
        {
          "internalType": "string",
          "name": "_name",
          "type": "string"
        },
        {
          "internalType": "uint256",
          "name": "_expiryDate",
          "type": "uint256"
        },
        {
          "internalType": "uint256",
          "name": "_dose",
          "type": "uint256"
        },
        {
          "internalType": "uint256",
          "name": "_price",
          "type": "uint256"
        }
      ],
      "name": "addMedicine",
      "outputs": [],
      "stateMutability": "nonpayable",
      "type": "function"
    },
    {
      "inputs": [
        {
          "internalType": "uint256",
          "name": "_medicineId",
          "type": "uint256"
        },
        {
          "internalType": "address",
          "name": "_patient",
          "type": "address"
        }
      ],
      "name": "prescribeMedicine",
      "outputs": [],
      "stateMutability": "nonpayable",
      "type": "function"
    },
    {
      "inputs": [
        {
          "internalType": "uint256",
          "name": "_age",
          "type": "uint256"
        }
      ],
      "name": "updatePatientAge",
      "outputs": [],
      "stateMutability": "nonpayable",
      "type": "function"
    },
    {
      "inputs": [
        {
          "internalType": "uint256",
          "name": "_Doctorid",
          "type": "uint256"
        }
      ],
      "name": "viewDoctorById",
      "outputs": [
        {
          "internalType": "uint256",
          "name": "",
          "type": "uint256"
        },
        {
          "internalType": "string",
          "name": "",
          "type": "string"
        },
        {
          "internalType": "string",
          "name": "",
          "type": "string"
        },
        {
          "internalType": "string",
          "name": "",
          "type": "string"
        }
      ],
      "stateMutability": "view",
      "type": "function",
      "constant": true
    },
    {
      "inputs": [
        {
          "internalType": "address",
          "name": "_PatientId",
          "type": "address"
        }
      ],
      "name": "viewPatientByDoctor",
      "outputs": [
        {
          "internalType": "uint256",
          "name": "",
          "type": "uint256"
        },
        {
          "internalType": "string",
          "name": "",
          "type": "string"
        },
        {
          "internalType": "uint256",
          "name": "",
          "type": "uint256"
        },
        {
          "internalType": "string",
          "name": "",
          "type": "string"
        }
      ],
      "stateMutability": "view",
      "type": "function",
      "constant": true
    },
    {
      "inputs": [
        {
          "internalType": "uint256",
          "name": "_id",
          "type": "uint256"
        }
      ],
      "name": "viewMedicine",
      "outputs": [
        {
          "internalType": "string",
          "name": "",
          "type": "string"
        },
        {
          "internalType": "uint256",
          "name": "",
          "type": "uint256"
        },
        {
          "internalType": "uint256",
          "name": "",
          "type": "uint256"
        },
        {
          "internalType": "uint256",
          "name": "",
          "type": "uint256"
        }
      ],
      "stateMutability": "view",
      "type": "function",
      "constant": true
    },
    {
      "inputs": [
        {
          "internalType": "address",
          "name": "_patient",
          "type": "address"
        }
      ],
      "name": "viewPrescribedMedicines",
      "outputs": [
        {
          "internalType": "uint256[]",
          "name": "ids",
          "type": "uint256[]"
        }
      ],
      "stateMutability": "view",
      "type": "function",
      "constant": true
    },
    {
      "inputs": [],
      "name": "viewRecord",
      "outputs": [
        {
          "internalType": "uint256",
          "name": "",
          "type": "uint256"
        },
        {
          "internalType": "string",
          "name": "",
          "type": "string"
        },
        {
          "internalType": "uint256",
          "name": "",
          "type": "uint256"
        },
        {
          "internalType": "string",
          "name": "",
          "type": "string"
        }
      ],
      "stateMutability": "view",
      "type": "function",
      "constant": true
    }
  ],
  "bytecode": "0x608060405234801561001057600080fd5b5061199c806100206000396000f3fe608060405234801561001057600080fd5b50600436106100a95760003560e01c8063dcd0c2b211610071578063dcd0c2b21461017c578063ddd865e814610198578063ddfe2e87146101b4578063e98ee2f0146101e7578063f01319ed14610203578063f0206d2014610224576100a9565b80632de304ed146100ae57806362ed105e146100ca57806376cd1852146100e65780638609acde14610119578063d36000ed1461014c575b600080fd5b6100c860048036038101906100c3919061104f565b610240565b005b6100e460048036038101906100df91906110ab565b6102db565b005b61010060048036038101906100fb91906111a0565b610363565b604051610110949392919061125b565b60405180910390f35b610133600480360381019061012e91906112ae565b61056d565b60405161014394939291906112db565b60405180910390f35b610166600480360381019061016191906111a0565b61074f565b60405161017391906113f3565b60405180910390f35b61019660048036038101906101919190611415565b610940565b005b6101b260048036038101906101ad9190611455565b6109ed565b005b6101ce60048036038101906101c991906112ae565b610a8e565b6040516101de949392919061149e565b60405180910390f35b61020160048036038101906101fc91906112ae565b610b94565b005b61020b610c2c565b60405161021b949392919061125b565b60405180910390f35b61023e600480360381019061023991906114ea565b610e35565b005b81600160003373ffffffffffffffffffffffffffffffffffffffff1673ffffffffffffffffffffffffffffffffffffffff168152602001908152602001600020600101908161028f91906117b1565b5080600160003373ffffffffffffffffffffffffffffffffffffffff1673ffffffffffffffffffffffffffffffffffffffff168152602001908152602001600020600201819055505050565b60006040518060a00160405280878152602001868152602001858152602001848152602001838152509050806002600088815260200190815260200160002060008201518160000155602082015181600101908161033991906117b1565b50604082015181600201556060820151816003015560808201518160040155905050505050505050565b60006060600060606000600160008773ffffffffffffffffffffffffffffffffffffffff1673ffffffffffffffffffffffffffffffffffffffff1681526020019081526020016000206040518060a0016040529081600082015481526020016001820180546103d1906115d4565b80601f01602080910402602001604051908101604052809291908181526020018280546103fd906115d4565b801561044a5780601f1061041f5761010080835404028352916020019161044a565b820191906000526020600020905b81548152906001019060200180831161042d57829003601f168201915b505050505081526020016002820154815260200160038201805461046d906115d4565b80601f0160208091040260200160405190810160405280929190818152602001828054610499906115d4565b80156104e65780601f106104bb576101008083540402835291602001916104e6565b820191906000526020600020905b8154815290600101906020018083116104c957829003601f168201915b505050505081526020016004820180548060200260200160405190810160405280929190818152602001828054801561053e57602002820191906000526020600020905b81548152602001906001019080831161052a575b505050505081525050905080600001518160200151826040015183606001519450945094509450509193509193565b600060608060606000806000878152602001908152602001600020905080600001548160010182600201836003018280546105a7906115d4565b80601f01602080910402602001604051908101604052809291908181526020018280546105d3906115d4565b80156106205780601f106105f557610100808354040283529160200191610620565b820191906000526020600020905b81548152906001019060200180831161060357829003601f168201915b50505050509250818054610633906115d4565b80601f016020809104026020016040519081016040528092919081815260200182805461065f906115d4565b80156106ac5780601f10610681576101008083540402835291602001916106ac565b820191906000526020600020905b81548152906001019060200180831161068f57829003601f168201915b505050505091508080546106bf906115d4565b80601f01602080910402602001604051908101604052809291908181526020018280546106eb906115d4565b80156107385780601f1061070d57610100808354040283529160200191610738565b820191906000526020600020905b81548152906001019060200180831161071b57829003601f168201915b505050505090509450945094509450509193509193565b60606000805b6003805490508110156107fc578373ffffffffffffffffffffffffffffffffffffffff166003828154811061078d5761078c611883565b5b906000526020600020906002020160010160009054906101000a900473ffffffffffffffffffffffffffffffffffffffff1673ffffffffffffffffffffffffffffffffffffffff16036107e95781806107e5906118e1565b9250505b80806107f4906118e1565b915050610755565b508067ffffffffffffffff81111561081757610816610eee565b5b6040519080825280602002602001820160405280156108455781602001602082028036833780820191505090505b5091506000805b600380549050811015610938578473ffffffffffffffffffffffffffffffffffffffff166003828154811061088457610883611883565b5b906000526020600020906002020160010160009054906101000a900473ffffffffffffffffffffffffffffffffffffffff1673ffffffffffffffffffffffffffffffffffffffff160361092557600381815481106108e5576108e4611883565b5b90600052602060002090600202016000015484838151811061090a57610909611883565b5b6020026020010181815250508180610921906118e1565b9250505b8080610930906118e1565b91505061084c565b505050919050565b600360405180604001604052808481526020018373ffffffffffffffffffffffffffffffffffffffff1681525090806001815401808255809150506001900390600052602060002090600202016000909190919091506000820151816000015560208201518160010160006101000a81548173ffffffffffffffffffffffffffffffffffffffff021916908373ffffffffffffffffffffffffffffffffffffffff16021790555050505050565b80600160003373ffffffffffffffffffffffffffffffffffffffff1673ffffffffffffffffffffffffffffffffffffffff1681526020019081526020016000206003019081610a3c91906117b1565b503373ffffffffffffffffffffffffffffffffffffffff167f27f5779cc94e111c9440b6e6044ebc85a7b3859e2d2c1e6a173b1b514aa72baf82604051610a839190611929565b60405180910390a250565b6060600080600080600260008781526020019081526020016000206040518060a001604052908160008201548152602001600182018054610ace906115d4565b80601f0160208091040260200160405190810160405280929190818152602001828054610afa906115d4565b8015610b475780601f10610b1c57610100808354040283529160200191610b47565b820191906000526020600020905b815481529060010190602001808311610b2a57829003601f168201915b505050505081526020016002820154815260200160038201548152602001600482015481525050905080602001518160400151826060015183608001519450945094509450509193509193565b80600160003373ffffffffffffffffffffffffffffffffffffffff1673ffffffffffffffffffffffffffffffffffffffff168152602001908152602001600020600201819055503373ffffffffffffffffffffffffffffffffffffffff167fa3ed5106f2af0dae17838761f731c6892d19b544d9a10f531afb1e8b2049d64182604051610c21919061194b565b60405180910390a250565b60006060600060606000600160003373ffffffffffffffffffffffffffffffffffffffff1673ffffffffffffffffffffffffffffffffffffffff1681526020019081526020016000206040518060a001604052908160008201548152602001600182018054610c9a906115d4565b80601f0160208091040260200160405190810160405280929190818152602001828054610cc6906115d4565b8015610d135780601f10610ce857610100808354040283529160200191610d13565b820191906000526020600020905b815481529060010190602001808311610cf657829003601f168201915b5050505050815260200160028201548152602001600382018054610d36906115d4565b80601f0160208091040260200160405190810160405280929190818152602001828054610d62906115d4565b8015610daf5780601f10610d8457610100808354040283529160200191610daf565b820191906000526020600020905b815481529060010190602001808311610d9257829003601f168201915b5050505050815260200160048201805480602002602001604051908101604052809291908181526020018280548015610e0757602002820191906000526020600020905b815481526020019060010190808311610df3575b5050505050815250509050806000015181602001518260400151836060015194509450945094505090919293565b6040518060800160405280600454815260200184815260200183815260200182815250600080868152602001908152602001600020600082015181600001556020820151816001019081610e8991906117b1565b506040820151816002019081610e9f91906117b1565b506060820151816003019081610eb591906117b1565b5090505050505050565b6000604051905090565b600080fd5b600080fd5b600080fd5b600080fd5b6000601f19601f8301169050919050565b7f4e487b7100000000000000000000000000000000000000000000000000000000600052604160045260246000fd5b610f2682610edd565b810181811067ffffffffffffffff82111715610f4557610f44610eee565b5b80604052505050565b6000610f58610ebf565b9050610f648282610f1d565b919050565b600067ffffffffffffffff821115610f8457610f83610eee565b5b610f8d82610edd565b9050602081019050919050565b82818337600083830152505050565b6000610fbc610fb784610f69565b610f4e565b905082815260208101848484011115610fd857610fd7610ed8565b5b610fe3848285610f9a565b509392505050565b600082601f83011261100057610fff610ed3565b5b8135611010848260208601610fa9565b91505092915050565b6000819050919050565b61102c81611019565b811461103757600080fd5b50565b60008135905061104981611023565b92915050565b6000806040838503121561106657611065610ec9565b5b600083013567ffffffffffffffff81111561108457611083610ece565b5b61109085828601610feb565b92505060206110a18582860161103a565b9150509250929050565b600080600080600060a086880312156110c7576110c6610ec9565b5b60006110d58882890161103a565b955050602086013567ffffffffffffffff8111156110f6576110f5610ece565b5b61110288828901610feb565b94505060406111138882890161103a565b93505060606111248882890161103a565b92505060806111358882890161103a565b9150509295509295909350565b600073ffffffffffffffffffffffffffffffffffffffff82169050919050565b600061116d82611142565b9050919050565b61117d81611162565b811461118857600080fd5b50565b60008135905061119a81611174565b92915050565b6000602082840312156111b6576111b5610ec9565b5b60006111c48482850161118b565b91505092915050565b6111d681611019565b82525050565b600081519050919050565b600082825260208201905092915050565b60005b838110156112165780820151818401526020810190506111fb565b60008484015250505050565b600061122d826111dc565b61123781856111e7565b93506112478185602086016111f8565b61125081610edd565b840191505092915050565b600060808201905061127060008301876111cd565b81810360208301526112828186611222565b905061129160408301856111cd565b81810360608301526112a38184611222565b905095945050505050565b6000602082840312156112c4576112c3610ec9565b5b60006112d28482850161103a565b91505092915050565b60006080820190506112f060008301876111cd565b81810360208301526113028186611222565b905081810360408301526113168185611222565b9050818103606083015261132a8184611222565b905095945050505050565b600081519050919050565b600082825260208201905092915050565b6000819050602082019050919050565b61136a81611019565b82525050565b600061137c8383611361565b60208301905092915050565b6000602082019050919050565b60006113a082611335565b6113aa8185611340565b93506113b583611351565b8060005b838110156113e65781516113cd8882611370565b97506113d883611388565b9250506001810190506113b9565b5085935050505092915050565b6000602082019050818103600083015261140d8184611395565b905092915050565b6000806040838503121561142c5761142b610ec9565b5b600061143a8582860161103a565b925050602061144b8582860161118b565b9150509250929050565b60006020828403121561146b5761146a610ec9565b5b600082013567ffffffffffffffff81111561148957611488610ece565b5b61149584828501610feb565b91505092915050565b600060808201905081810360008301526114b88187611222565b90506114c760208301866111cd565b6114d460408301856111cd565b6114e160608301846111cd565b95945050505050565b6000806000806080858703121561150457611503610ec9565b5b60006115128782880161103a565b945050602085013567ffffffffffffffff81111561153357611532610ece565b5b61153f87828801610feb565b935050604085013567ffffffffffffffff8111156115605761155f610ece565b5b61156c87828801610feb565b925050606085013567ffffffffffffffff81111561158d5761158c610ece565b5b61159987828801610feb565b91505092959194509250565b7f4e487b7100000000000000000000000000000000000000000000000000000000600052602260045260246000fd5b600060028204905060018216806115ec57607f821691505b6020821081036115ff576115fe6115a5565b5b50919050565b60008190508160005260206000209050919050565b60006020601f8301049050919050565b600082821b905092915050565b6000600883026116677fffffffffffffffffffffffffffffffffffffffffffffffffffffffffffffffff8261162a565b611671868361162a565b95508019841693508086168417925050509392505050565b6000819050919050565b60006116ae6116a96116a484611019565b611689565b611019565b9050919050565b6000819050919050565b6116c883611693565b6116dc6116d4826116b5565b848454611637565b825550505050565b600090565b6116f16116e4565b6116fc8184846116bf565b505050565b5b81811015611720576117156000826116e9565b600181019050611702565b5050565b601f8211156117655761173681611605565b61173f8461161a565b8101602085101561174e578190505b61176261175a8561161a565b830182611701565b50505b505050565b600082821c905092915050565b60006117886000198460080261176a565b1980831691505092915050565b60006117a18383611777565b9150826002028217905092915050565b6117ba826111dc565b67ffffffffffffffff8111156117d3576117d2610eee565b5b6117dd82546115d4565b6117e8828285611724565b600060209050601f83116001811461181b5760008415611809578287015190505b6118138582611795565b86555061187b565b601f19841661182986611605565b60005b828110156118515784890151825560018201915060208501945060208101905061182c565b8683101561186e578489015161186a601f891682611777565b8355505b6001600288020188555050505b505050505050565b7f4e487b7100000000000000000000000000000000000000000000000000000000600052603260045260246000fd5b7f4e487b7100000000000000000000000000000000000000000000000000000000600052601160045260246000fd5b60006118ec82611019565b91507fffffffffffffffffffffffffffffffffffffffffffffffffffffffffffffffff820361191e5761191d6118b2565b5b600182019050919050565b600060208201905081810360008301526119438184611222565b905092915050565b600060208201905061196060008301846111cd565b9291505056fea26469706673582212203acf3e959e3b80580f677de1bd1fa2f2f7cdde71e4c52f1eb76d1527b26ed34164736f6c63430008130033",
  "immutableReferences": {},
  "source": "// SPDX-License-Identifier:UNLICENSED \npragma solidity^0.8.0;\n\ncontract Healthrecord{\n    \n    struct Doctor {\n        uint256 id;\n        string name;\n        string qualification;\n        string workPlace;\n    }\n    struct Patient {\n        uint256 id;\n        string name;\n        uint256 age;\n        string disease;\n        uint[] medicineids;\n    }\n    struct MedicineDetails {\n        uint id;\n        string name;\n        uint expiryDate;\n        uint dose;\n        uint price;\n    }\n    struct Prescription {\n        uint medicineId;\n        address patient;\n    }\n    mapping(uint => Doctor) doctors;\n    mapping(address => Patient)patient;\n    mapping(uint => MedicineDetails)medicines;\n    Prescription[] prescriptions;\n    \n   /* Register a new doctor\n   This function is used to register a new doctor to the ledger. It takes the below parameters:\n        @param _name Name of the doctor\n        @param _qualification Which degree he/she holds as a doctor\n        @param _workPlace Address of his/her hospital/clinic    */\n\n    uint Doctors;\n    function registerDoctor(uint _id, string memory _name, string memory _qualification, string memory _workPlace) public {\n        // Doctors++;\n        doctors[_id] = Doctor(Doctors, _name, _qualification, _workPlace);\n    }\n        \n   /*  Register a new patient\n   This function is used to register a new patient to the ledger. It takes the below parameters:\n        @param _name Name of the user\n        @param _age Age of user   */\n\n     function registerPatient(string memory _name, uint _age) public {\n        patient[msg.sender].name = _name;\n        patient[msg.sender].age = _age;\n    }\n\n   /* Add a patient's disease\n   This function is used to add a patient's disease. It takes the below parameters:    \n        @param _disease Name of the disease */\n\n     event PatientDiseaseAdded(address indexed patientAddress, string disease);    \n     function addNewDisease(string memory _disease) public {\n        patient[msg.sender].disease = _disease;\n        emit PatientDiseaseAdded(msg.sender, _disease);\n    }\n\n   /*\tAdd medicine\n   This function is used to add medicines. It takes the below parameters:\n        @param _id Id of the medicine\n        @param _name name of the medicine\n        @param _expiryDate ExpiryDate of the medicine\n        @param _dose Dose prescribed to the patient\n        @param _price Price of the medicine    */\n\n     function addMedicine(uint _id, string memory _name, uint _expiryDate, uint _dose, uint _price) public {\n        MedicineDetails memory newMedicine = MedicineDetails(_id, _name, _expiryDate, _dose, _price);\n        medicines[_id] = newMedicine;\n    }\n   \n   /*\tPrescribe medicine \n   This function is used by doctors to prescribe medicine to a patient. It takes the below parameters:\n        @param _id Medicine Id\n        @param _patient address of the patient    */\n\n     function prescribeMedicine(uint _medicineId, address _patient) public {\n        prescriptions.push(Prescription(_medicineId, _patient));\n    }\n\n    \n\t/*  Update patient details by patient\n    This function helps patients to update their age. It takes the below parameters:    \n        @param _age New age of the patient    */\n\n     event updateAge(address indexed patientAddress, uint256 age);\n     function updatePatientAge(uint256 _age) public {\n         patient[msg.sender].age = _age;\n         emit updateAge(msg.sender, _age);\n    }\n\n    /*\tView doctor details\n    This function helps to view doctor details. It takes the below parameters:  \n        @param _id ID of the doctor\n        @return id ID of the doctor\n        @return name Name of the doctor\n        @return qualification Name of degree he/she holds as a doctor\n        @return add Address of his/her hospital/clinic   */\n\n     function viewDoctorById(uint _Doctorid) public view returns (uint, string memory, string memory, string memory) {\n        Doctor storage doctor = doctors[_Doctorid];\n        return (doctor.id, doctor.name, doctor.qualification, doctor.workPlace);\n    }  \n\n    /*\tView patient data   \n    This function helps to view patient data stored in Blockchain. It takes the below parameters:       \n        @return id Id of the patient\n        @return age Age of the patient\n        @return name Name of the patient\n        @return disease All the diseases of the patient    */\n    \n    function viewPatientByDoctor(address _PatientId) public view returns (uint, string memory, uint, string memory) {\n        Patient memory patients = patient[_PatientId];\n        return (patients.id, patients.name, patients.age, patients.disease);\n    }\n\n\n    /*\tView medicine details    \n    This function helps to fetch medicine details. This function below input parameters and return the details about the medicine.\n        @param id Id of the medicine\n        @return name Name of the medicine\n        @return expiryDate Expiry date of the medicine\n        @return dose Dose prescribed for the medicine\n        @return price Price of the medicine   */\n\n    function viewMedicine(uint _id) public view returns (string memory, uint, uint, uint) {\n        MedicineDetails memory medDetails = medicines[_id];\n        return (medDetails.name, medDetails.expiryDate, medDetails.dose, medDetails.price);\n    }\n\n     /* View prescribed medicine to the patient \n     This function helps the doctor to view patient data. It takes the below parameters:\n        @dev View prescribed medicines to the patient \n        @param _patient address of the patient\n        @return ids list of medicine id's    */\n\n    function viewPrescribedMedicines(address _patient) public view returns (uint[] memory ids) {\n        uint count = 0;\n          for (uint i = 0; i < prescriptions.length; i++) {\n            if (prescriptions[i].patient == _patient) {\n              count++;\n            }\n         }\n        ids = new uint[](count);\n          uint index = 0;\n         for (uint i = 0; i < prescriptions.length; i++) {\n            if (prescriptions[i].patient == _patient) {\n            ids[index] = prescriptions[i].medicineId;\n            index++;\n            }\n         }\n    }\n   \n     /*\tView patient data by a doctor \n     This function helps a doctor to view patient data. It takes the below parameters:    \n        @param _id ID of the patient\n        @return id ID of the patient\n        @return age Age of the patient\n        @return name Name of the patient\n        @return disease All the diseases of the patient    */ \n\n     function viewRecord() public view returns (uint, string memory, uint, string memory) {\n        // Doctor memory Doctors = doctors[_doctorId];\n        Patient memory patients = patient[msg.sender];\n        return (patients.id, patients.name, patients.age, patients.disease);\n    }\n\n}\n    \n",
  "sourcePath": "C:\\Users\\Administrator\\Desktop\\MedicalRecord\\contracts\\Healthrecord.sol",
  "compiler": {
    "name": "solc",
    "version": "0.8.19+commit.7dd6d404.Emscripten.clang"
  },
  "schemaVersion": "3.4.13",
  "updatedAt": "2023-04-08T10:48:14.098Z",
  "networkType": "ethereum",
  "devdoc": {
    "kind": "dev",
    "methods": {},
    "version": 1
  },
  "userdoc": {
    "kind": "user",
    "methods": {},
    "version": 1
  }
}